:020000040800F2
:1000000000180020C11300085D1300085F130008EA
:1000100000000000000000000000000000000000E0
:100020000000000000000000000000006113000854
:1000300000000000000000006313000865130008C2
:100040004114000800000000411400084114000899
:10005000411400084114000841140008411400082C
:100060000000000041140008411400084114000879
:100070004114000841140008411400080000000069
:1000800041140008000000000000000041140008B6
:100090000000000041140008411400084114000849
:1000A0000000000041140008000000004114000896
:1000B0004114000800000000000000006D1300085B
:1000C00010B5064C2378002B07D1054B002B02D02E
:1000D000044800E000BF0123237010BD0802002087
:1000E0000000000030540008044B10B5002B03D072
:1000F0000349044800E000BF10BDC04600000000F6
:100100000C0200203054000802780B78002A03D03B
:10011000013001319A42F7D0D01A70470023C25CF7
:100120000133002AFBD1581E7047000002B471460B
:1001300049084900095649008E4402BC7047C04630
:1001400002B4714649084900095C49008E4402BC6A
:100150007047C04603B47146490840004900095E33
:1001600049008E4403BC7047002243088B4274D37D
:1001700003098B425FD3030A8B4244D3030B8B42A8
:1001800028D3030C8B420DD3FF22090212BA030CB1
:100190008B4202D31212090265D0030B8B4219D392
:1001A00000E0090AC30B8B4201D3CB03C01A5241B2
:1001B000830B8B4201D38B03C01A5241430B8B42FA
:1001C00001D34B03C01A5241030B8B4201D30B03E3
:1001D000C01A5241C30A8B4201D3CB02C01A52410A
:1001E000830A8B4201D38B02C01A5241430A8B42CD
:1001F00001D34B02C01A5241030A8B4201D30B02B6
:10020000C01A5241CDD2C3098B4201D3CB01C01ACF
:10021000524183098B4201D38B01C01A52414309D9
:100220008B4201D34B01C01A524103098B4201D3C7
:100230000B01C01A5241C3088B4201D3CB00C01A34
:10024000524183088B4201D38B00C01A52414308AC
:100250008B4201D34B00C01A5241411A00D20146D1
:10026000524110467047FFE701B5002000F0F0F85A
:1002700002BDC0460029F7D076E7704703460B431E
:100280007FD4002243088B4274D303098B425FD38F
:10029000030A8B4244D3030B8B4228D3030C8B42BB
:1002A0000DD3FF22090212BA030C8B4202D31212A1
:1002B000090265D0030B8B4219D300E0090AC30B76
:1002C0008B4201D3CB03C01A5241830B8B4201D323
:1002D0008B03C01A5241430B8B4201D34B03C01A0C
:1002E0005241030B8B4201D30B03C01A5241C30A84
:1002F0008B4201D3CB02C01A5241830A8B4201D3F5
:100300008B02C01A5241430A8B4201D34B02C01ADE
:100310005241030A8B4201D30B02C01A5241CDD283
:10032000C3098B4201D3CB01C01A524183098B42CE
:1003300001D38B01C01A524143098B4201D34B01B7
:10034000C01A524103098B4201D30B01C01A52411A
:10035000C3088B4201D3CB00C01A524183088B42A1
:1003600001D38B00C01A524143088B4201D34B008A
:10037000C01A5241411A00D20146524110467047FC
:100380005DE0CA0F00D04942031000D34042534001
:1003900000229C4603098B422DD3030A8B4212D3C1
:1003A000FC22890112BA030A8B420CD389019211F3
:1003B0008B4208D3890192118B4204D389013AD030
:1003C000921100E08909C3098B4201D3CB01C01A05
:1003D000524183098B4201D38B01C01A5241430918
:1003E0008B4201D34B01C01A524103098B4201D306
:1003F0000B01C01A5241C3088B4201D3CB00C01A73
:10040000524183088B4201D38B00C01A5241D9D28A
:1004100043088B4201D34B00C01A5241411A00D20B
:100420000146634652415B10104601D34042002B07
:1004300000D54942704763465B1000D3404201B586
:10044000002000F005F802BD0029F8D016E770473B
:100450007047C046F0B504000F001D008BB03F2868
:100460004FDC1F294DDC06236B431B18002B48DD96
:10047000EB005B18002B44DD002351B2994205DBF1
:10048000131C202A00D22023203BDBB20522534339
:100490002D4A9B180493A3B20393631D0893049BF6
:1004A00001971B780593BBB206933B000833079373
:1004B0000122059B13420BD0954243D13F2C07D814
:1004C000019B1F2B04D86B46E0B2197900F0D0FDD8
:1004D000059B079A5B080593019B01330193069BDB
:1004E0005B199BB20693019B9342E1D1049B0134BB
:1004F00001330493039B5B199BB20393089B9C42BB
:10050000CDD10BB0F0BD00230293039B9B199BB28E
:100510000993099B3F2B0CD8069B029A99188BB222
:100520001F2B06D8039B0122F018C9B2C0B200F0FD
:100530009FFD029B013302939D42EADC0136B542E6
:10054000E1DCC5E70026FAE724560008F0B51F00F5
:1005500006230C00160005007B4385B00393FB00C7
:10056000019002933278002A01D105B0F0BD0A2A29
:1005700005D1029B019D1C1924B20136F2E73B0014
:1005800028002100FFF766FF039B5D192DB2F4E7F9
:1005900010B500F033FEDA2000F01EFD122000F04E
:1005A0001BFD002000F03EFD00F04AFD10BDF7B538
:1005B00004000E000192002804D000250127019BB1
:1005C000AB4200DCF7BD32002A41A18820683A40E6
:1005D00001F0B0F801350834F1E77047802110B51B
:1005E0000448890101F0A0F8013843425841C0B2E3
:1005F00010BDC046000800488021902010B5890039
:10060000C00501F091F8013843425841C0B210BD15
:1006100010B500F069FF10BDF0B5040091B00020E6
:1006200002910592260000F0FDFC002C12D000265D
:100630002378B3420ED02200310030000123FFF7AF
:1006400085FF01240A23300040221900009400F0A5
:1006500027FD26000298FFF761FD0A21039002980A
:1006600004F036FA0400002E53D00C23039A0599A7
:1006700053430022914200D00632D2180125402A6D
:1006800000DC6D19EA002B002F000492002C4AD0E8
:100690001022002108A804F013FA102200210CA84F
:1006A00004F00EFA029B06271900E21A08A804F0CB
:1006B0002EFA611C0CA804F06BFA08A8FFF72EFDB7
:1006C0006F43784302900CA8FFF728FD2A014743A7
:1006D000002E00D16FE015239B1ADC0FE418641084
:1006E0000D344026029B21B2F01A40102B0000B2BC
:1006F00008AAFFF72BFFEB00F01BE11840102B00BE
:1007000009B200B20CAAFFF721FF00F099FC11B06A
:10071000F0BD039B032BA8D80028A6D118230327DC
:1007200004933D003B00039A534306225A436B1E39
:1007300006925A425341DBB207930023059A9A422C
:1007400001D003337B43069A9B18079A9B184022DB
:10075000D31ADA0FD3185B100393002E2FD0152372
:10076000049A9B1ADC0FE41864100D346B4626B211
:100770000C20185E31002B00029AFFF7E7FE012DD6
:1007800007D1039B3100581C029A2B0000B2FFF7DF
:10079000DDFE059B002BB8D0039B06989C46079B6B
:1007A0006044C018E419C01901232A00E1B2C0B2A4
:1007B00000F0BEFCA9E72024A41A641091E72024CD
:1007C000049BE41A6410D1E7F8B5142523246D4284
:1007D000002000F027FCEB0FED18102C00DD013C91
:1007E000204E02233200082029B2FFF7AFFE022379
:1007F0001D4F18003A0021B2FFF7A8FE00F020FCC0
:100800001E2000F077FE002DE2DB102CE0DC9620AD
:10081000C00000F06FFE002000F004FC2B0013333A
:1008200000DB013D222C00DC0134022332000820D1
:1008300029B2FFF78BFE02233A00180021B2FFF71E
:1008400085FE00F0FDFB1E2000F054FE2B0013334C
:10085000E1DA222CDFDD002000F0E4FB00F0F0FB09
:10086000F8BDC046485400084D540008F0B51027A4
:1008700097B0282200210CA801AC04F021F905ADA5
:100880003A000021200004F01BF914220021280066
:1008900004F016F903230A9380235B021393802349
:1008A00001260E975B030E3F0AA80B960D96129732
:1008B000149302F04DF9002801D072B6FEE7072329
:1008C000A060E060310020000193676002F068FBE7
:1008D000002801D072B6FEE7064BE860059380233E
:1008E00028002B6102F0E0FB002801D072B6FEE781
:1008F00017B0F0BD20000200F0B58BB000F0D8FDBD
:10090000FFF7B4FF1422002105A804F0D9F88021D4
:100910004A4B09035A6990200A435A615A69484F61
:100920000A4080210192019A5A69C9030A435A6117
:100930005A69C0050A4080210292029A5A698902C6
:100940000A435A615A6900250A4080210392039A9A
:100950005A69C9020A435A615B6900220B40049339
:10096000F021049B00F0E6FE00223900354800F03B
:10097000E1FE802302249B01334805A905930794D7
:10098000069500F019FE9020F023012605A9C00568
:10099000059306960795089500F00EFE294805A9CF
:1009A000059706960795089500F006FE802390208F
:1009B0009B0005A9C00505930794069500F0FCFD72
:1009C000224C234B20002360224BA5606360E6602D
:1009D00025616561A561E561256200F0E5FF010023
:1009E000A84201D072B6FEE7200001F09BF9011E7B
:1009F00001D072B6FEE7200001F0BAF9002801D05C
:100A000072B6FEE703F0ECFD642303227821200098
:100A100001F002F9002803D1FFF7BAFDFFF7D4FE79
:100A2000032000F047F800F069F800F051FA00F0F8
:100A3000B3F80A2000F05EFDF5E7C0460010024062
:100A4000FEF00000000400480008004824020020D6
:100A5000005400402B1D200072B6FEE770B5060062
:100A600003F034FE002821D000F03EFD040003F026
:100A70003DFE002811D13000FFF750FB0400202874
:100A800000D920240A4D31002200280004F088F803
:100A90002800A1B203F0FAFD08E003F017FE0028D9
:100AA00004D000F021FD001B1428E0D970BDC04621
:100AB000CC02002000220D4B00B518700C4B1A60C0
:100AC0000C4B01321A70052807D80B4BFFF738FB87
:100AD000030306080A0C20221A6000BD0822FBE767
:100AE0000622F9E70222F7E76522F5E7FC0200207B
:100AF000F802002038000020F402002070B5FFF753
:100B000087FD0400FFF76AFD0500FFF775FD1C4B2C
:100B10000100002D01D100282FD01A68002A00D131
:100B20001C6018480268A21AC82A1AD9FA251B683C
:100B30000122E31AED00AB4204D9134B1B78052BBD
:100B400000D10932114D2B6800290BD0002B07DD95
:100B50009B1ADA43D21713402B6001220C4B1A70F8
:100B6000046070BD0B490E68711E9942F8DDD21801
:100B7000964200DD11002960EFE71860F1E7C046FA
:100B8000EC020020F0020020FC020020F80200200D
:100B900038000020F402002070B5564B90B01A784F
:100BA000002A2FD00025544C1021544A1D7003A850
:100BB000236803F051FF03A8FFF750FF1422290018
:100BC0000BA803F07DFF4E4B187805281AD8FFF7C5
:100BD000B7FA031B2F4A5A694A4B22684A48995C64
:100BE0000522FFF7E4FC49490BA803F0D1FF484A6E
:100BF0002368102107A803F02FFF002207A90BA8E4
:100C0000FFF70AFD10B070BD424B22684248995C64
:100C10000522FFF7CCFC2368404A013314210BA8BE
:100C200003F01AFF22683E4B5200D35A384AE0E7DD
:100C30003C4B22683C48995C0322FFF7B8FC2368D0
:100C4000072B09D139490BA803F0A2FF384B2168C3
:100C5000384A8900CB58CCE71421304A01330BA81D
:100C600003F0FAFEF2E7344B22683448995C032221
:100C7000FFF79DFC236814210133314A0BA803F0D0
:100C8000EBFE304BE3E7304B22683048995C0122A1
:100C9000FFF78DFC2E490BA803F07AFF23682D4A3D
:100CA0000133A6E7FF20246864216043FFF7E6FADA
:100CB000C0B2FFF792FC0A212000FFF7DFFA0A21F9
:100CC00006002000FFF7C0FB234D33002A000091EF
:100CD0000BA8142103F0C0FEB4204000642160433F
:100CE000FFF7CCFA0A4A0300102107A803F0B4FE6C
:100CF000012283E738000020F80200205354000846
:100D0000FC02002024580008FC5800085E5400082B
:100D10009254000804580008245900086754000839
:100D2000465800088C580008E45800087154000820
:100D3000180000207B540008865800084C59000811
:100D40007E5400080000002044580008DC580008C9
:100D5000885400089054000895540008F7B5040022
:100D600043180193019B9C4200D1F7BD23780D2BC2
:100D700011D00CD8092B0CD00A2B0CD018490A78AA
:100D80000E2A28D8501C087016498B5401E0202BDD
:100D9000F4D10134E6E7124F3A78002A16D0124B0C
:100DA0001B78002B12D10321104E357801350D40F0
:100DB0000F490978A94209D00A4930788B540D4B64
:100DC0000001C018013203F0EBFE35700023064A23
:100DD0003B701370DDE70122034B1A70D9E7C04660
:100DE000BB020020BC020020BA02002079020020D1
:100DF000780200207A02002010B5002288B02A492B
:100E00002A48FFF709FC0C22002105A803F058FE30
:100E1000C02390205B010393032303A9C00504931F
:100E200000F0CAFB8023224C1B0422691343236178
:100E30000023204A0093009B934231DD23691E4A20
:100E400013402361E3691340E36100F0FBFA01F012
:100E50001DFE0022194B03201A605A609A6001237C
:100E6000174A5B42D367C022164952008B50A269D1
:100E700002331A43A261A2691A400192019A124AEE
:100E800011688143116011680B4313600F4B02938B
:100E9000029B029A126882F308885B689847FEE713
:100EA000009B01330093C6E79F540008A954000833
:100EB000001002405FE31600FFFF7FFF10E000E03C
:100EC00004E100E000E100E00000014000C8FF1F75
:100ED000F0B5FA270A2689B0BF00304D304B2A788A
:100EE0001B789A4201D109B0F0BD2C782D4B24011A
:100EF000E41820002C49FFF707F900280ED10C2137
:100F00002A4A2B4B12785143CB582021294A684654
:100F100003F0A2FD6846FFF7A1FD18E02000264976
:100F2000FFF7F2F8002807D12448FFF797FD322099
:100F300000F0E0FAFFF760FF04222000204903F0F0
:100F4000D5FD00281FD123790434002B0ED10322B4
:100F50002B78013313402B70BFE7303BDAB2092AFC
:100F6000F5D870431818B842F1DC01342378002B0F
:100F7000F3D1144B1B688342E9DD0122124B186048
:100F8000124B1A70E3E720001149FFF7BDF8002863
:100F9000DDD10D4B10210F4A1B68B8E77802002005
:100FA000790200207A020020B0540008FC020020E0
:100FB00094580008B6540008BB540008C6540008F2
:100FC000DD540008F4020020F80200203800002060
:100FD000E2540008535400087FB5172201236A44E5
:100FE0005B42107002930233009278210022019339
:100FF000024800F037FD07B000BDC04624020020C3
:101000001FB50123064C5B4289B202930191009007
:10101000402278212000023300F024FD1FBDC0468D
:1010200024020020431E9841802210B54142C9B2DB
:101030000248520003F044FD10BDC04604030020E6
:1010400070B5B024094D2000FFF7C6FF0020FFF760
:10105000C3FF01341220FFF7BFFFE4B22800402194
:10106000FFF7CEFF4035B42CEDD170BD0403002056
:1010700030B53F280ED81F290CD80724CB089B0178
:10108000064D21401818063C8C402B5C012A02D1E9
:1010900023432B5430BDA343FBE7C0460403002089
:1010A000F0B587B000930CAB1B7816000593131AAC
:1010B000DA179B1853400193009B05005B1ADA175F
:1010C0009B18534002930C000123864214D90393CA
:1010D000009BA34212D90123029A0493019B300082
:1010E0009F1A0099059AFFF7C3FFB54209D1009BEB
:1010F0009C4206D107B0F0BD5B42E8E701235B42AA
:10110000EAE7059A21002800FFF7B2FF029A7B0068
:1011100052429A4204DA029ABF1A039AAD18EDB20B
:10112000019A9A42E1DD049BBF18E418E4B2DCE7BF
:10113000F0B587B00190029100933F2844D81F2951
:1011400042D801240027A41A55426400019BEEB244
:101150009B1B029ADBB20393FBB29B18DBB2190014
:10116000009A03980493FFF783FF019B009AF618F7
:10117000F3B2180004990593FFF77AFF029BFAB2C5
:101180009E1AF6B23100009A0598FFF771FF310000
:10119000009A0398FFF76CFFA74213DB01377B002F
:1011A00001336A421B19BA4202D1A54202DB002474
:1011B000A54205DA01356A0001329B18012D03D0E2
:1011C0001C00C3E72300F3E707B0F0BD10B504002F
:1011D0008120FFF701FF2000FFF7FEFE10BD000099
:1011E000030010B5AE20002B01D00123C018024A25
:1011F0005371FFF7F1FE10BDFE02002010B5642010
:1012000000F078F90020FFF7EBFF2020FFF7E4FE65
:101210000020FFF7E1FEB020FFF7DEFEC820FFF759
:10122000DBFE0020FFF7D8FE1020FFF7D5FE4020A0
:10123000FFF7D2FEFF20FFF7C9FFA120FFF7CCFE8A
:10124000A620FFF7C9FEA820FFF7C6FE1F20FFF764
:10125000C3FEA420FFF7C0FED320FFF7BDFE002091
:10126000FFF7BAFED520FFF7B7FEF020FFF7B4FE78
:10127000D920FFF7B1FE2220FFF7AEFEDA20FFF7FC
:10128000ABFE0220FFF7A8FEDB20FFF7A5FE202023
:10129000FFF7A2FE8D20FFF79FFE1420FFF79CFEB4
:1012A0000120FFF79DFF0020FFF7BCFEFFF7C8FEFF
:1012B0000022034B1A805A8001321A7110BDC046B9
:1012C000FE02002001210A4B82B09A690A439A610A
:1012D0009A690A4080210092009ADA6949050A4316
:1012E000DA61DB690B400193019B02B07047C04695
:1012F0000010024010B5040088B01422002103A899
:1013000003F0DEFB124B22689A421FD18022114C5F
:10131000D2026369104813436361636903A91340F0
:101320000193019BC0239B000393122304930F3B63
:101330000693023B079300F03FF98022E369920392
:101340001343E361E36913400293029B08B010BDAD
:10135000005400400010024000040048FEE7FEE791
:101360007047704710B500F0B3F810BD10B50248D3
:1013700000F092FD10BDC046340F00200B490C4A0E
:101380000300521A0B4910B50868002801D10A4819
:101390000860C318934206D903F0CEFB0C23036008
:1013A0000120404210BD0B60FCE7C0460004000075
:1013B000001800200404002058130020704700008B
:1013C00013488546FFF7FAFF12480168090E124AD2
:1013D000914205D111481249016012481249016039
:1013E00012481349134A002302E0D458C45004336E
:1013F000C4188C42F9D3104A104C002301E013604A
:101400000432A242FBD303F09DFBFFF775FAFEE71F
:1014100000180020040000001F0000001810024007
:10142000010000000000014000000000000000205A
:10143000080200209C5900080802002058130020D0
:10144000FEE77047012210B50024064B52421A6194
:101450001C61DA60DC609A629C62FFF7F2FF200098
:1014600010BDC0460010024070B50500FA200D4BBB
:1014700080001978FEF778FE0B4C01002068FEF71B
:1014800073FE00F07FF804000120002C09D1032D29
:1014900007D802382200290000F03EF82000034B54
:1014A0001D6070BD400000203C0000204400002072
:1014B0001023064A10B5116803200B431360FFF791
:1014C000D3FFFFF7FFFE002010BDC0460020024002
:1014D000034A044B11681B785B1813607047C046C1
:1014E0000804002040000020014B18687047C046E7
:1014F0000804002070B50400FFF7F6FF0500631C28
:1015000002D0044B1B78E418FFF7EEFF401BA0420B
:10151000FAD370BD4000002010B5FF2403220B0059
:1015200021000240D20091409B012340C9439340D7
:1015300000280ADBC0240B4A800880008018A40021
:1015400002590A401343035110BD0F2210400838BE
:10155000054A800880008018C26911401943C161A2
:10156000F2E7C04600E100E000ED00E0002805DB06
:101570001F2318401E3B8340014A13607047C0463A
:1015800000E100E08022431E5204012093420DD26C
:10159000C021074A07485360036A09061B021B0A59
:1015A0000B43036200200723906013607047C0461E
:1015B00010E000E000ED00E00023F0B587B00A681D
:1015C0001400DC4001D107B0F0BD012514009D409E
:1015D0002C4000942A4200D198E04A685F0094466B
:1015E0000322644622400324BC40E4430194541E79
:1015F000012C2ED88668019C2640CC68BC40344320
:10160000846044680126AC432500644624093440C4
:101610009C402C434460C568019C25408C68BC40BC
:101620002C43C460022A16D107250F261D40AD00A9
:10163000AE40DC08A40004190294246A0396260034
:10164000039CA64334000E69AE402643029C2662EA
:1016500001E0032ADFD1BA400468019D25402A43F6
:10166000C02402606246A40222424FD00125284ACB
:1016700090279469FF052C43946192699C082A4045
:101680000592059A234AA400A4180F2202351D4092
:10169000AD00AA40A66896430022B8420CD01E4F67
:1016A0000132B84208D01D4F0132B84204D01C4F5D
:1016B0000332B84200D1023AAA4067463243A260E0
:1016C000184A009C9668009DE4433543FF0201D40C
:1016D0003500254067469560D668009D3543BF02BA
:1016E00001D4350025406746D5605668009D3543D6
:1016F000BF0301D435002540674655601568009E3C
:101700002E43FF0301D425402E001660013356E717
:10171000001002400000014000040048000800489A
:10172000000C00480004014000690840431E984135
:10173000C0B27047002A01D0816170478162FCE726
:1017400003689A69920701D500229A620122996979
:10175000114202D199690A439A61704730B5039CDE
:1017600000682343120489051A43890D054B456817
:101770000A43640D234352009D4352082A434260AA
:1017800030BDC046FF63FF03F7B505681700AA69BF
:10179000102316000400019100201E401A420DD0B3
:1017A0000600EB61009025682022AB69134260D1EE
:1017B000002E30D004260120009B1E438022AB69FE
:1017C0005200134202D00120EA6106438022D20077
:1017D000134203D0082101200E43EA6180229200C7
:1017E00013424BD00223EA611E432000FFF7A8FFFB
:1017F0006B68244A012013406B60636C20223343E2
:101800006364230041331A702200002342324034C3
:101810001370237034E0019B0133C5D0FFF764FEE1
:10182000019BC01B984201D8002BBCD12200236829
:101830004232586811789A69C9B212040BD58022D5
:10184000D201104207D1202905D059680A435A60B5
:10185000FFF74AFE0700202523689B692B42A2D18F
:10186000FFF742FEC01B1928F6D92023012600935A
:1018700099E7002E9ED12023EB619BE70028B4D18D
:10188000FEBDC04600E800FEF8B504000D001600DD
:10189000022723689B693B4201D0002021E03200EF
:1018A00029002000FFF770FF002819D16B1CF0D031
:1018B000FFF71AFE801BA84201D8002DE9D123684A
:1018C000996902230A001A401942E2D12021636C6F
:1018D0000B43636423004034413319705A70227003
:1018E0000120F8BDF8B504000D0017001E002368A4
:1018F0009B692B405B1B5A425341BB4201D00020E5
:1019000026E031002000069AFFF73EFF00281ED196
:10191000731CECD0FFF7E8FD069BC01AB04201D85B
:10192000002EE4D123689B692B405B1B5A42534134
:10193000BB42DCD12022636C134363642300413338
:101940001A702200002342324034137023700120A9
:10195000F8BDF8B504000E001700202523689B6928
:101960002B4201D000201DE03A0031002000FFF79B
:101970000BFF002815D1FFF7B7FDC01BB04201D8FF
:10198000002EEBD123689B691A002A402B42E5D137
:10199000636C2B4363642300403441331D705A70E1
:1019A00022700120F8BD000070B504000120002C59
:1019B0004ED0250041352B78DAB2002B05D123001B
:1019C000403320001A70FFF795FC242301212B706F
:1019D0002368E0681A68A6688A431A601D4962682D
:1019E0000A401A619A681C490A409A60012807D186
:1019F0008022120232439A605A681848024009E075
:101A00008422120232439A600228F5D1802258685B
:101A1000120102435A605868114A02435A60DA6858
:101A200000200A40DA60616922690A43A16909025B
:101A30000A43DA60216AE2690A431A6001221968DE
:101A40000A431A60202360642B70206342342070A4
:101A500070BDC046FFFFFFF0FF7FFFFFFFF7FFFFF6
:101A600000800002F0B5070087B003930CAB029230
:101A700004CB41371B88049205933B7804000E0089
:101A80000220202B08D1002A02D0059B002B05D173
:101A900080239B006364012007B0F0BD2300403326
:101AA0001A780220012AF7D001221A70FFF71CFDD4
:101AB0008021050000901923012220000902FFF770
:101AC00011FF0028E7D121233B7027001F33423745
:101AD0003B70049B60646362059B606363856B4637
:101AE0001A7B4B4B31000093802320005B04FFF7EF
:101AF00035FE2A0020000E99FFF7C6FE002829D1E6
:101B0000039A2368012A16D16A46127A9A62002241
:101B1000802120000E9B0095FFF7E4FE002819D1DC
:101B2000638DFF2B1AD88023628D9B0492B222858D
:101B3000D2B2009017E0029A2000120A9A620E991F
:101B40002A00FFF7A1FE002804D16B4622681B7A09
:101B50009362DCE70023403423709CE7FF2280235C
:101B600022855B04009031002000FFF7F7FD2A007A
:101B700020000E99FFF788FE002800D08BE7636AEB
:101B800022681978013391626362638D228D013B73
:101B90009BB26385013A638D92B22285002B16D0E9
:101BA000002A14D1802120000E9B0095FFF79AFE99
:101BB000002800D06FE7638DFF2B21D9FF228023FF
:101BC00022855B04009031002000FFF7C7FD638D84
:101BD000002BCCD12A0020000E99FFF7BAFE002876
:101BE00000D058E7202123680A4DD9615A682A405D
:101BF0005A602300403441331970387020704BE72D
:101C00008023628D9B0492B22285D2B20090DAE7E3
:101C10000020008000E800FEF0B51D00002389B020
:101C2000079303004133059203931B7804000220BD
:101C3000202B3FD1236880229F6912023E0016406C
:101C4000174237D1220040321778012F32D00138A5
:101C50001070242210270398890502708A0D66648B
:101C60000492E268012A27D12C4A04990A435A6057
:101C7000FFF73AFC06002268936992699B06D20638
:101C8000DB0FD20F134319D023689B6900961A000B
:101C90003A403B4226D12B0020212000FFF722FEB4
:101CA00000281DD120232268D36122004034413214
:101CB0001370207009B0F0BD194AD6E76B1CDAD05A
:101CC000FFF712FC801BA84201D8002DD3D120239E
:101CD000039A4034137062681343636000232370D7
:101CE0000120E7E72B00002220212000FFF7FAFD6A
:101CF0000028F5D120222368059EDF61DA6107996B
:101D0000013107910799B142ABD3230041331A70D7
:101D1000636C40341A4362602070E1E700200002E7
:101D200000280002F0B504004134227803000F00BF
:101D30000220D6B2202A18D11D0040352A78012A67
:101D400013D0242222701B68233A19680748914354
:101D50001960196801400020196019683943196039
:101D600019680A431A6026702870F0BDFFEFFFFF64
:101D70000200F0B5413214780300E5B20220202CB5
:101D800017D11C0040342678012E12D0223010705A
:101D90001B6823381E68074F86431E601E680902B1
:101DA0003E403143196019680843186000201570DF
:101DB0002070F0BDFFF0FFFF70B504000120002C83
:101DC0002BD0224D635DDAB2002B05D1A4239B00FA
:101DD0002000E25402F01AFD03236355206801F04D
:101DE000FDF90023220019000126207910329842C3
:101DF00014D10021220008005132FF328B4217D14A
:101E00006168A268206801F0F3F9002323730133AD
:101E10006355A37A012B15D0002070BD13700133D8
:101E20005670D170116151619161DBB22832DEE7E9
:101E3000117001315070D070106150619061C9B261
:101E40002832DBE7200000F00CFEE5E791020000FD
:101E500070B5A425AD00435D04000220012B09D01C
:101E600001236355206801F0AFF9206801F0BBFB46
:101E70000020605570BD70B5A425AD00435D040021
:101E80000220012B07D0012363552068217301F044
:101E9000A3FB0020605570BDF0B5040087B000685A
:101EA00001F0A9FB802305001B021D40184201D14F
:101EB00000F026FC2068821DD38F1BB2002B01DBB3
:101EC00007B0F0BD0F21D38F194001910F219AB2B5
:101ED0000B4200D0C0E01023110019401A4227D154
:101EE0000388C84A13408022120213430380030070
:101EF00050331A88237CDB00C3189B18C24A200089
:101F00009B181B88626A9B059B0DE362D318636272
:101F100002F0ADFC237B002BCCD0A16A0029C9D1F3
:101F20008020227B236802434C331A802173C1E74F
:101F3000028880211600090193B20E400A4222D085
:101F4000030050331A88A8235B00E35CA621DB0062
:101F5000C3189B18AD4A89009B1822001B88513278
:101F60009B059B0DFF32D3616118D28801F0A0FD63
:101F70002168A74B0A8820001A40802313430B8056
:101F800002F060FC96E71BB2002B00DB92E70288B0
:101F90009F4B25001A4080231343038003005033D6
:101FA0001A88A8235B00E35C5135DB00C3189B183B
:101FB000964AFF359B181B889B059B0DEB610DD046
:101FC000696900290AD0EA8801F072FD6B69EA6943
:101FD00031009B1820006B6102F03DFC21680A88EB
:101FE00093B2120500D565E7C022920113409342D7
:101FF00000D15FE70B0050331A88844BCB189B1835
:102000001A889205920D1A802A69002A0ED1802022
:102010001A88000202431A800A887E4B1A40C023A5
:102020009B0153407C4A13430B8043E73E2A08D868
:10203000012655083240AA1818889202024392B22B
:10204000E9E71F2550092A4055426A41801A1A883B
:1020500080021043714AF1E7019B9B00C218039371
:10206000138899B21BB20291002B40DA1388684999
:102070000B4080210B4313802823019A5343E3181C
:102080001E001D0019005D36FF3651353678FF35CC
:10209000FC312A788F6E002E67D1010050310988FB
:1020A000D200521859491218521812885733920503
:1020B000950D002A00D09EE028230199594362180B
:1020C000FC32106F40191067906E40199066D06E08
:1020D000002803D0526E954200D3FCE0019A200004
:1020E0005343E3185133FF33197802F0B4FB8022D5
:1020F000029B134200D1DDE62068039B4149C218D0
:102100001388019E0B4045490B439BB21380282244
:102110005643A319D97C012900D00FE1019901315F
:102120004A43002111511A7F8A4200D1E6E0402241
:10213000029D029E1540164200D1E8E05A7C8A4278
:1021400000D0CFE00200503211881A7C2E4BD20012
:10215000C01841185218138830499B059B0D1380F5
:1021600013880B439BB21380C8E01E005436FF3621
:102170003678022E00D088E08026F601B446654607
:10218000029ECB6E2E40059606005036049666469B
:10219000029D354248D0049D2E88D50076191A4DEF
:1021A000361876193588AD05AD0D9D420DD9002341
:1021B000CB66910041180E88164B33408026B6013D
:1021C0007340154E33430B8002E05B1BCB66F0D0AF
:1021D000029B5B0607D592008218138810490B40BA
:1021E00010490B431380002D00D165E72823019A85
:1021F0005343E3185933FF331A8839002B0001F099
:1022000057FC59E70F8FFFFF02040000060400008F
:102210008F0F00008FBFFFFF808000000080FFFF56
:102220008F8FFFFFC0800000049D2E88D500761997
:10223000C64D361876193588AD05AD0D9D420DD9C0
:10224000059BCB66910041180E88C14B3340802618
:10225000B6017340BF4E33430B8002E05B1BCB667D
:10226000F0D0029B5B0607D4920082181388BA490B
:102270000B40BA490B431380002D00D11CE72823E3
:10228000019A5343E3185B33B5E79200821816882E
:10229000B1493140B14E314311802A789100411843
:1022A0000D88010050310988D2008A1812186D0477
:1022B00008D5AB49521812889205950D002A00D115
:1022C000FAE697E7A149521812889205950D002A5F
:1022D00000D1F1E6D7E75131FF312068611801F0F4
:1022E000A3F904E7012A09D102009D4D503212885A
:1022F0001B7C4019DB0080181B1819802823019AC9
:102300005343E318197C200002F0B1FAD2E55A7C5D
:10231000002A06D10200503211881A7C8B4BD20061
:1023200016E7012AEAD102008849503212881B7C44
:102330004018DB0080181B181D80DFE780270299FA
:102340007F0039401A7C8C46029903929D6AD20024
:1023500039421CD1070050373F88BF18804A3F18C8
:10236000BF183A889205920DAA4203D36246039998
:102370009A62C8E7596AAD1A89185962D96A103643
:102380008A189D62DA62A11901F04EF992E54021A6
:102390008C46029F06000F4004976746029950360C
:1023A000394200D1E2E06E49378846180021F7191A
:1023B000BF5A8C46BF05BF0DAF4201D2E91B8C4608
:1023C0006146802599620299ED0129400D00614620
:1023D000002947D1282301994B43E3185B7C002B4C
:1023E00030D1070050373B885E49F3189B181E8890
:1023F000B605B60D1E801E880E43B6B21E80534E23
:102400003B888019C018801803889B059B0D0380AA
:1024100003880B439BB203802000039902F027FA44
:10242000002D00D1DFE02823019A4B495343E318E4
:102430001B7C22689B00D21813880B404A490B432F
:102440001380D0E0012BE7D10700614650373B886D
:10245000F3189B1819803D493B884018C018801814
:102460006346D8E7002D0CD00399890041180D88E8
:102470000291AC466146384D0D403B490D430299EF
:102480000D80282501994D4334218C466519AC44B3
:1024900061460978012900D0A5E0696AC919696215
:1024A0000291D96AC919D9622B6B296A8B421AD356
:1024B0005B1A2B632823019D6B43E3185D7C8BB271
:1024C000002D3AD1050050352D887519AA181588A8
:1024D000AD05AD0D1580002911D11188214D29437D
:1024E00089B2118016E0002B03D161460B703900D0
:1024F000E0E700216746397029631900DAE73E29D1
:1025000011D801274E080F401588F619B602354339
:10251000ADB21580282201994A43A218128B029964
:1025200001F06DF85FE01F264D0931404E427141C8
:102530006D1A1188AD022943D0E7012DEAD10100BF
:10254000503109887618B6183380E3E70604000096
:102550008FBFFFFF808000008F8FFFFFC0800000D3
:10256000020400000080FFFF80C00000AE493688F2
:102570008C4684446644B65A049FB605B60DAE42F6
:1025800000D8AF1B80250299ED0129400D009F6204
:10259000002F49D1282301994B43E3185B7C002B82
:1025A00033D10300A14950331E8840188019801888
:1025B00006889F49B605B60D068006880E43B6B25A
:1025C00006801B8863449B181A889205920D1A8016
:1025D0001A880A4392B21A802000039902F047F940
:1025E000002D00D11FE72823019A5343E3181B7CD9
:1025F00022689B00D21811888E4B194030234B4023
:102600008D490B431380FFF755FC012BE4D10300E8
:10261000864950331E8840188019801807801B880F
:1026200063449B181F80D7E7002908D10399834D85
:10263000890041180F883D40814F3D430D80282778
:1026400001994F43E7193900343102910978012982
:10265000C9D1796A89197962DD6AAD19DD623B6B8E
:102660003D6AAB421AD35B1B3B632823019E734335
:10267000E3185E7CABB2002E39D1060050363688A6
:102680006644B2181688B605B60D1680002D11D115
:102690001588674E3543ADB2158018E0002B03D185
:1026A000029D2B703500E0E70025029E3D633570EA
:1026B0001D00DAE73E2D10D816886F080296012615
:1026C00035407F19029EBF023E43B6B216802822D3
:1026D000019D6A43A218528B22E71F276E093D40D5
:1026E0006F427D41761B1588B6023543D1E7012E36
:1026F000EDD1050050352D886544AA181380E6E712
:1027000043050ED523684F490633DA8F20000A406F
:10271000DA8702F0BEF829002000FFF7ACFBFFF7D4
:10272000CFFB430407D5236847490633DA8F0A40B5
:10273000DA87FFF7C5FB802301009B01194018428F
:1027400004D0236841490633DA8FF0E7C3041AD571
:10275000042023680233DA8F8243DA87DA8F001885
:102760008243DA87B2239B00E25C012A03D1200076
:10277000E15400F08AF9200002F0AEF823683449F1
:102780000633DA8FD3E7030513D5082123689A1C93
:10279000D08F06330143D187D98F2E480140D98786
:1027A0000423D18F0B43D387200002F083F8FFF777
:1027B00087FB8025284221D0B22023688000991D04
:1027C000CA8FAA43CA87225C002AEDD104219A1C31
:1027D000D58F54332943D1870821D58F2943D187F9
:1027E00001213C2221541B8820009B081340B32266
:1027F0009200A35000F049F9FFF762FB83050AD568
:10280000236815490633DA8F20000A40DA8702F080
:1028100039F8FFF755FBC00501D4FFF751FB2368DA
:102820000E490633DA8F82E7060400000204000036
:102830000080FFFFBF8FFFFF808000008F8FFFFFB2
:1028400080C00000FFFBFFFFFFBFFFFFFFDFFFFFB8
:10285000FFEFFFFFFFF7FFFFFFFDFFFFFFFEFFFFA3
:1028600070B5040007200D000840282141436DB2D7
:102870006618002D18DA012510316118757408707A
:102880000A61CB70022B01D100230B71A425AD008E
:10289000635D0220012B06D001236355206800F000
:1028A000B5FC0020605570BD002551315236FF3116
:1028B000FF3661183570E2E707220B000A40282135
:1028C00051435BB270B504004018002B12DA0123AB
:1028D000103161184374A4250A70AD00635D0220B5
:1028E000012B06D001236355206800F09FFD0020D6
:1028F000605570BD002351315230FF31FF306118F7
:102900000370E8E7F8B50724214021344C43061949
:102910003700FC37FB663300002552335136FF3356
:10292000FF3651343D67BA66FF341D7031700119AE
:10293000006800F079FE2800F8BD07230B4028212D
:1029400059434018FC30006F704770B50724214090
:1029500021344C4306193500726201223435B362CA
:102960002A700025317472741034F56233630119D2
:10297000006800F059FE280070BD072270B5037989
:1029800004000A400120934219D348B228230028AA
:1029900016DA5343190001201031E31861185874F6
:1029A0000123A4258B700A70AD00625D02209A425B
:1029B00005D06355206800F0B3FD0020605570BD60
:1029C0004B4319000020E31851315233FF31FF33DC
:1029D00061181870E4E70B000F2270B5017904004C
:1029E0001A40012091421BD3072228211A4051434B
:1029F0005BB26018002B14DA0123103161184374A4
:102A00000025A4268D700A70B600A35D0220012B5C
:102A100006D00123A355206800F0A4FD2800A55589
:102A200070BD002351315230FF31FF306118037007
:102A3000E6E730B528240D060BD5072529404C4381
:102A40001034001999B2002A07D10273C180002006
:102A500030BD4C435134FF34F3E7012283600273ED
:102A6000F5E703680200B420012110B58000B2240C
:102A700011500020A400105554331A88114302222B
:102A8000198019880A431A8010BD7047F8B5FEF7FF
:102A90002BFD812305000226254C22681343236069
:102AA000236833422CD00C266368224A13406360AB
:102AB000636833422CD1204B204A1A60204B18689F
:102AC000FEF7D2FC051E30D123681E4A8027134032
:102AD000236023681C4ABF0413402360FEF704FDF3
:102AE0000600226813003B403A4218D16360E3625B
:102AF0002363A3608023626A5B041343636205E07F
:102B0000FEF7F2FC401B0228CAD903252800F8BDB5
:102B1000FEF7EAFC0D4B401B9842C9D9F5E7FEF7DA
:102B2000E3FC801B0228DCD9EFE70125EEE7C04675
:102B3000001002400CF8FFF03C00002000127A0068
:102B400044000020FFFFF6FEFFFFFBFF881300009C
:102B5000F0B5040085B000284AD00368DB072FD405
:102B600023689B0700D586E023681B0700D5C6E0D5
:102B700023685B0700D5E9E02368DB061AD56269A4
:102B80000423B94D012A00D052E1696B02270B439F
:102B90006B636B6B1A436A63FEF7A6FC06006B6BF4
:102BA0003B4200D13DE1F8216A6BA3698A43DB0017
:102BB00013436B63236A002B00D061E100202FE0F8
:102BC0000C22A94D6B681340042B0BD06B6813408B
:102BD000082B0FD1C0226B68520213408022520290
:102BE000934207D12B689B03BAD56368002BB7D1FA
:102BF000012015E06368012B14D180232A685B0251
:102C000013432B60FEF770FC80270600BF022B6881
:102C10003B42A5D1FEF768FC801B6428F7D903204E
:102C200005B0F0BD002B16D12B68904A80271340C9
:102C30002B602B688E4ABF0213402B60FEF754FCBA
:102C400006002B683B4200D18AE7FEF74DFC801B53
:102C50006428F6D9E3E7052B05D180232A68DB0237
:102C600013432B60C9E72B68804A13402B602B6805
:102C70007F4A1340C5E70C227B4D6B6813420BD093
:102C80006B681340082B15D1C0226B6852021340A9
:102C90008022120293420DD12B689B0702D5E36874
:102CA000012BA5D1F8212A6823698A43DB0013434D
:102CB0002B6059E7E2680123002A0FD02A68022717
:102CC00013432B60FEF710FC06002B683B42E9D152
:102CD000FEF70AFC801B0228F7D9A0E72A68022722
:102CE0009A432A60FEF700FC06002B683B4200D1A5
:102CF0003AE7FEF7F9FB801B0228F6D98FE7E26975
:102D00000123594D002A10D06A6A022713436B62CF
:102D1000FEF7EAFB06006B6A3B4200D028E7FEF7AD
:102D2000E3FB801B0228F6D979E76A6A02279A43F7
:102D30006A62FEF7D9FB06006B6A3B4200D117E7D7
:102D4000FEF7D2FB801B0228F6D968E7802200211B
:102D5000454D5205EB690091134208D1EB691343CD
:102D6000EB61EB6913400393039B012300938027DE
:102D7000404E7F0033683B4215D0A368012B22D11F
:102D80002A6A13432B62FEF7AFFB022706002B6A69
:102D90003B423FD0009B012B00D0EDE6EB69364A69
:102DA0001340EB61E8E633683B433360FEF79CFB7E
:102DB000019033683B42E0D1FEF796FB019BC01ABD
:102DC0006428F6D92BE70122002B14D12B6A0227A5
:102DD00093432B622B6A033293432B62FEF784FBEF
:102DE00006002B6A3B42D5D0FEF77EFB234B801BAF
:102DF0009842F6D913E7052B05D1296A013B0B430D
:102E00002B622B6ABDE72B6A934304222B622B6A49
:102E10009343B7E7FEF768FB184B801B9842B6D97F
:102E2000FDE6FEF761FB801B022800D8B7E6F6E658
:102E3000053203D16A6B9A436A63B4E66A6B022770
:102E4000134301226B636B6B93436B63FEF74CFB85
:102E500006006B6B3B4200D1ACE6FEF745FB801BE6
:102E60000228F6D9DBE6C04600100240FFFFFEFF55
:102E7000FFFFFBFF00700040FFFFFFEF8813000023
:102E80000C21344D6A680A40082A47D0324A022B86
:102E900032D12B68802713402B60FEF725FB0600FC
:102EA000BF042B683B4221D10F22EB6A802693435B
:102EB000E26AB6041343EB62616AA36A6A680B4371
:102EC00026490A4013436B6080232A685B0413433E
:102ED0002B60FEF709FB04002B68334200D06DE63F
:102EE000FEF702FB001B0228F6D998E6FEF7FCFA73
:102EF000801B0228D5D992E62B68802613402B60D0
:102F0000FEF7F2FA0400B6042B68334200D155E60E
:102F1000FEF7EAFA001B0228F6D980E6012B00D161
:102F200066E6C0226868616A5202EB6A02408A4221
:102F300000D05DE60F221340E26A934200D057E6CC
:102F4000F0239B031840A36AC01A431E9841C0B2E5
:102F500066E6C04600100240FFFFFFFEFF7FC2FF93
:102F60000C220B4910B54B681A40082A0DD10F20CE
:102F7000CA6A9B0C07490340CC5C07490240895C44
:102F80000648FDF7F1F8604310BD0448FCE7C04671
:102F900000100240845900087459000800127A0099
:102FA000F7B504000E00002801D10120FEBD01226A
:102FB000374D2B6813408B421CD32268930722D4D1
:102FC000D2072FD401232A681A40B24251D823686D
:102FD000304D5B0754D4FFF7C3FF6B682E4A1B06C6
:102FE0001B0FD35C2D49D84008600320FEF73CFA44
:102FF0000020DBE72B6893430B432B602B681340C7
:103000008B42D2D1D9E72349530704D5E02348683E
:10301000DB0003434B60F0204B688343A06803430D
:103020004B60CDE71B4F62683B68012A19D19B03B7
:10303000BBD503217B688B4313437B60FEF754FAB7
:1030400001900C237A681A4063689B009A42B9D0B9
:10305000FEF74AFA019BC01A114B9842F1D903209E
:10306000A4E7022A02D19B01E3D49EE79B07E0D4A8
:103070009BE72A689A432A602A681A42A7D094E7F5
:103080006B68084A1340E26813436B60A3E7C046CD
:103090000020024000100240645900083C0000205B
:1030A00088130000FFF8FFFFF0B50368050085B046
:1030B000DB032AD5802200213D4C5205E3690091B3
:1030C000134208D1E3691343E361E36913400393B7
:1030D000039B012300938027364E7F0033683B42D9
:1030E0002AD0236AC02219009200334E11401342A5
:1030F00034D1236A6A68334013432362009B012B57
:1031000003D1E3692D4A1340E3612A68D30706D54A
:10311000032027490B6B8343A86803430B63930683
:1031200006D5102022490B6B8343E86803430B63E9
:10313000920334D400200FE033683B433360FEF742
:10314000D3F9019033683B42CBD1FEF7CDF9019B17
:10315000C01A6428F6D9032005B0F0BD6B6813408F
:103160008B42C6D08022236A206A19005202024391
:103170002262226A12483140024022622162DB0749
:10318000B7D5FEF7B1F907000222236A1342B0D186
:10319000FEF7AAF90B4BC01B9842F5D9DBE780215B
:1031A000034A136B8B4329690B431363C2E7C04681
:1031B0000010024000700040FFFCFFFFFFFFFFEF28
:1031C000FFFFFEFF88130000821D03000020D08750
:1031D000014A0233DA87704780BFFFFF0230C38F96
:1031E000024A1340C38700207047C0467F4000005A
:1031F000821C03000121002082B0D187D0879A1D54
:103200005033D087188002B070470000F7B50E78B1
:103210007A4AB300C3181C88CF78144001220500F5
:103220000092032F08D83800FCF78AFF02423F3C87
:103230008022920014430097714A1443A4B21C8068
:103240001888704C20403043104380B21880F00042
:103250008446087BAC4450350195002800D06BE0D3
:10326000CD8848786D086D00002823D08020019912
:10327000C0000988614409180D801988490604D5E1
:1032800019882140604C21431980604D012F00D1E5
:10329000AEE020211C882C4061400A4392B2009885
:1032A0001A80FEBDC022D200144300220092C3E760
:1032B0008022F8E7019809690788554867443F1854
:1032C00001983D800588534865442D182F88BF0517
:1032D000BF0D2F80002915D1802729883F0239434F
:1032E00029801988490404D5198821404A4C214372
:1032F00019804A491C880C40C021002E00D0802132
:103300008901C9E73E2908D801270F4049087F18DD
:103310002888BF020743B9B2E2E71F204F090140E6
:103320000800414241417F1A2988BF0239433C4F7E
:103330000F43BFB22F80D4E71D88022F3AD1394EF8
:103340002540354301981D80058880200E896544FD
:10335000C00076082D18760001982E8005884E89C9
:103360002B48654476082D1876002E804978274E24
:103370008C4680216046294DC90100281FD11F8835
:103380000F4204D01988244F2140394319801988ED
:10339000490604D5198821401B4C21431980C021BE
:1033A0001C8889012C406140114389B21980198819
:1033B000314072E71C4E35401543ADB2C2E7188864
:1033C000084204D019881448214001431980198803
:1033D000490604D5198821400B4C21431980012F3F
:1033E00009D020211C8834406140114389B21980E2
:1033F0001988294051E719883140F6E78F89FFFF86
:103400008080FFFF8F8FFFFFC0800000BF8FFFFF16
:10341000040400000604000080C000008FBFFFFF0E
:103420000080FFFF808100008F8EFFFFF0B50B78DA
:103430004A78097B9B00C018314B00291AD1002A19
:103440000CD00288520605D502882E490A402E4922
:103450000A43028002882D490A402FE00288520464
:1034600005D5028827490A4029490A430280028873
:103470002849F1E78027234E244D2649FF01002AE1
:1034800021D102883A4204D00288214C32402243A2
:1034900002800288204C520604D502883240224322
:1034A00092B20280028832401443A4B2048002889F
:1034B0000A401A4392B2028002882A4013439BB208
:1034C00003800020F0BD0288144C3A4204D00288E8
:1034D0003240224392B202800288520604D502880A
:1034E000094F32403A430280028832401443A4B26A
:1034F000048002882A401A4392B202800288ABE715
:103500008080FFFF8F8FFFFFC0800000BF8FFFFF15
:1035100080C000008FBFFFFFC080FFFF80C0FFFFA3
:103520000B7849789B000C4AC018002909D0018803
:103530000A4B194010234B4013439BB203800020D9
:1035400070470188064B194080235B014B401A43AA
:1035500092B20280F3E7C0468080FFFFBF8FFFFF7B
:103560008FBFFFFF0B7B002B19D10B784A789B0094
:10357000C0180388002A14D05B0605D50388104ABA
:103580001340104A13430380CB78012B07D00E4B16
:1035900002881A40202353400C4A13430380002022
:1035A00070475B0405D50388054A1340084A134356
:1035B0000380084B02881A40C0239B01EBE7C046FA
:1035C0008F8FFFFFC0800000BF8FFFFF8080000053
:1035D00080C000008FBFFFFF002902D180234C3044
:1035E0000380002070478022583003881202134362
:1035F0000380002070470630C08F80B2704730B51E
:1036000080240133E40012195B0880185B00CB189A
:10361000401A0C188B4200D130BD4A780D78120246
:103620002A4322800231F4E7F0B50C004978060005
:10363000227B87B0012900D01DE12369A76902938D
:103640009F4200D91F003300503361690193002A63
:103650001DD1BFB23B00E2883000FFF7D0FF019BD5
:10366000BF4A19882378B218DB0052189B181F80B4
:103670002378BC4A9B00F3181988114030224A4035
:10368000B9490A4392B21A80002007B0F0BD2278EF
:10369000256A9300D2000392E078F318022800D044
:1036A000D3E0029AAA4200D3BDE01A88AF48ED1BCE
:1036B0001040AF4A104318801B8840209C46624649
:1036C000024005926246CB1904932562BBB20242C6
:1036D00056D0019A12889446A64AB018039A6044BC
:1036E0008218138062893000FFF789FF049B029AD9
:1036F00063610023AA4201D2EB1B3D006278236282
:10370000ABB2002A2FD1019A9549108822787118FE
:103710000918D200521811888905890D1180002DD1
:103720000AD1802011880002014311802289049966
:103730003000FFF764FF9BE73E2D08D801202840AA
:103740006D0811884519AD02294389B2EDE71F20A4
:103750002840690945426841091A108889020843CE
:1037600085490143F1E7012AE0D132007C4950321A
:10377000108822787118D200091852181380D5E7E2
:10378000019A12889446764AB018039A60448218C7
:10379000138022893000FFF732FF049B029A636195
:1037A000059BAA4201D2EB1B3D0062782362ABB2BB
:1037B000002A2BD1019A6F491088227871180918B4
:1037C000D200521811888905890D1180002D06D16B
:1037D000802011880002014311806289A7E73E2DF5
:1037E00008D8012028406D0811884519AD022943E9
:1037F00089B2F1E71F2069090540684245411088F8
:10380000491B890208435C490143F1E7012AE4D1DD
:10381000320058495032108822787118D2000918A5
:1038200052181380D9E71888544F4F4A3840104334
:1038300080B21880019B039A1888494BF3181B1813
:103840009A18ABB21380228972E71888ED1B019A8F
:1038500025621588BBB2400607D5464AB018039AC0
:10386000401982181380628962E73D4AB018039AB2
:1038700040198218E6E7002A1CD1A36921698B420E
:1038800001D95A1A0B00A26132003A49503210880D
:1038900022787118D2000918521811888905890DEB
:1038A0001180002B00D0E2E08021138809020B4335
:1038B000138047E0E378022B00D093E0002934D155
:1038C000070025785037EA003B880192244A821885
:1038D000D218019BD21813889B059B0D1380236976
:1038E000002B05D1802011880002014311800BE0DC
:1038F0003E2B49D801215D08AC461940108861442F
:103900008902084380B210801A4A3988B2185218C6
:103910000199521811888905890D1180002B41D118
:103920008021138809020B431380E369002B09D01F
:10393000402223789B00F31819880A40490448D58F
:10394000002A48D123789B00F61832880C4B1A4085
:10395000C0239B0153400B4A1343338094E6C04677
:1039600002040000BF8FFFFF8080FFFF8F8FFFFFEB
:1039700080810000060400000080FFFF8F8EFFFFA3
:103980008FBFFFFF808000001F20184005006842A5
:1039900068415909091A1088890208433F490143BF
:1039A00089B2A3E73E2B08D8012119405B08108893
:1039B000CB189B0203439BB2B6E71F205909034073
:1039C00058424341C91A138889021943334B0B43A8
:1039D000F1E7002AB6D11A8831490A4031490A4331
:1039E0001A80AFE70120834200D04EE6A369226926
:1039F0000020934201D9981A1300A0610029A1D197
:103A0000370025785037EA0039880192264AB218E3
:103A100052180199521811888905890D1180002BBF
:103A200005D1802011880002014311800BE03E2B5C
:103A30000FD801215D08AC46194010886144890205
:103A4000084380B21080194A3988B2185218019977
:103A500022E71F2018400500684268415909091AE9
:103A60001088890208430D49014389B2DDE73E2BE6
:103A700008D8012119405B081088CB189B0203432A
:103A80009BB215E71F205909034058424341C91A08
:103A9000138889021943014B0B43F1E70080FFFFB4
:103AA0008F8FFFFFC08000000204000006040000AA
:103AB000F0B580255C08ED00521926000D00801835
:103AC000471AEA19002E06D1DB0703D56400001956
:103AD00003880B55F0BD1288013E92B22A70120A7B
:103AE0006A700235EDE70000AF239B00C35870B544
:103AF000002B0ED0AE22802592008458AD00605D70
:103B0000FF2806D0044A9B682100A25C9847FF2347
:103B10006355002070BDC0460102000043230380AE
:103B2000004870478C000020432303800048704702
:103B3000D000002043230380004870474800002045
:103B40000A230380004870474C01002070B5AE2660
:103B5000B6000400855900F071FF83239B00E850F4
:103B6000A3590220002B0AD0832381229B00E9184D
:103B7000B033E3589200DB68A8589847002070BD26
:103B8000F8B5AE239B00C75804000E000220002F9A
:103B900016D014254D436519E869002811D0282254
:103BA0004A430833E3589B18196AFCF763FB0A1E63
:103BB00007D10B00E9612000310000F02DFF00204B
:103BC000F8BD852300229B00FA50F8E7AE2373B5B9
:103BD0009B006A46C65800235371D3800B780D00B2
:103BE0006022190004001140134226D0202942D13E
:103BF000EA886878002A19D05BB2002B0BDAAF2371
:103C00009B00E35831009B6898473100EA88200008
:103C100000F0A0FC08E080239B00F054194B310019
:103C20002000F25400F0ACFC002076BDAF239B00D6
:103C3000E35829009B689847F6E76B780A2B0CD06D
:103C40000B2B13D0002B16D1A7239B00C35C032B97
:103C500011D16B460222991DD9E7A7239B00C35CB3
:103C6000032B08D16B460122591DD0E7A7239B00E7
:103C7000C35C032BD8D02000290000F044FC0220B4
:103C8000D3E7C0460102000070B504000025812181
:103C900000F08BFE01212000E56200F086FE23008B
:103CA000AE26FC331D6782212000B60000F07DFEA9
:103CB000A3592564AB4208D0AF239B00E3585B684F
:103CC0009847A05900F0C6FEA551002070BD70B500
:103CD000037C0400002B3BD1802381219B00022226
:103CE00000F057FE01218023E1629B0002222000A8
:103CF00000F04FFE23000126FC33032282211E67C1
:103D00002000082300F045FE87202664800000F094
:103D10009DFEAE239B000500E0503000002D16D024
:103D20000433E3581B689847852200239200AB5068
:103D30000432AB5081239B00EA58237C002B10D126
:103D400080239B003100200000F06FFE002070BD3A
:103D500040238121022200F01CFE01214023E16268
:103D6000C4E74023EEE703000220002903D0AF227E
:103D70000020920099507047AE239B00C3588220C8
:103D8000800019508421890000205A507047AE23CA
:103D90009B00C258B43B0020D1507047AE239B001B
:103DA000C25810B50223002A12D085218900545828
:103DB000013B002C0CD1535084239B00D3580C3969
:103DC000525888390363FF399BB200F025FE230067
:103DD000180010BDAE239B00C25810B50223002A64
:103DE0000BD081239B00D258037C002B07D180236A
:103DF0009B00012100F019FE0023180010BD402394
:103E0000F7E7022310B5002813D0AD239B00C45858
:103E1000002C01D00024C450002902D0AC239B0008
:103E2000C150A72301219B00C154027000F068FD1E
:103E30000023180010BD03000220002903D0AD228A
:103E4000002092009950704710B500F099FD0020B5
:103E500010BDAD239B00C25810B50223002A04D028
:103E600013689847431E98414300180010BDAD23C6
:103E700010B59B00C3585B689847002010BD000038
:103E8000AA239B0070B5C5180400280000F027FB8A
:103E9000A52301229B00E250114BE25A163BE2504F
:103EA0001033E15C1F230B40012B09D0022B0CD0F7
:103EB000002B0FD12900200000F01AF9002070BD5E
:103EC0002900200000F04EFAF8E72900200000F059
:103ED00071FAF3E77F232000994300F06FFDEDE7CF
:103EE000AE02000070B50400150000292ED1A523F4
:103EF0009B00C258032A23D102005532FF32D068FA
:103F0000136998420BD9C01AD060834200D90300CC
:103F1000290020009AB200F043FB002070BDAD23C1
:103F20009B00E3581B69002B06D0A7229200A25CDD
:103F3000032A01D120009847200000F039FBECE76C
:103F4000052AEAD1C15000F039FDE6E7AD239B0018
:103F5000C35802209B69002BE0D0A7229200A25CEC
:103F6000032ADBD120009847D7E7F8B50D000400FD
:103F70001100002D4DD1A5239B00C358022B3ED12B
:103F8000036A466AB34211D99B1B03629AB200F0DE
:103F9000EFFA2B002A002900200000F046FDA8239C
:103FA0009B00E25C012A31D00020F8BDC7693100D6
:103FB0003800FCF75FF90D1E0CD1BE420AD8A626C8
:103FC000B600A3599F4205D20A00200000F0D0FAA3
:103FD000A551DEE7AD239B00E358DB68002B06D03C
:103FE000A7229200A25C032A01D1200098478021D9
:103FF000200000F0E3FC200000F0E6FACFE7042206
:104000009343CCD1802100F0D9FCC8E70022E254D0
:10401000CAE7AD239B00C35802205B69002BC4D0C4
:10402000A7229200A25C032ABFD129002000984752
:10403000BAE7002270B504001100402300F0A9FC8B
:10404000230001254026FC338021DD659E66002289
:104050003300200000F09DFCA72300219B00A561F8
:104060006662E554083BE15010336160E15014335F
:10407000E3588B4205D0AD239B00E35820005B68DA
:104080009847002070BD017400207047A7239B0053
:10409000C15C034A81540422C25400207047C046C8
:1040A0009D020000A7239B00C25C042A02D1024AA1
:1040B000825CC254002070479D020000A72310B507
:1040C0009B00C35C032B06D1AD239B00C358DB6967
:1040D000002B00D09847002010BD10B504008021AF
:1040E00000F06CFC0021200000F068FC10BD000016
:1040F00060220B7873B513400D0019009218203917
:104100000400114205D0002B0BD02000FFF7E5FF83
:1041100005E0AD239B00C35829009B689847002009
:1041200076BD68780928F0D8FCF714F8E900080192
:10413000EFFF0001EFFF77000A00EFFFD0009900CA
:104140006B469E1D002333806B88180A01380628B1
:10415000DBD8FBF7EBFF041523DADA3D4700AC238D
:104160009B00E358207C1B68310098473188002968
:104170004ED0EA88002A41D1200000F019FACEE79B
:10418000AD23227C9B00E358002A05D19B6A3000B6
:10419000984702234370E9E7DB6AF8E7D8B20528BD
:1041A000B3D8AC239B00E358FBF7CAFF03080A0C03
:1041B0000E105B68002BA8D0207CD5E79B68F9E740
:1041C000DB68F7E71B69F5E75B69F3E79B69F1E7F4
:1041D000237C002B99D1AD239B00E35830005B6B0F
:1041E0009847C3E7237C002B00D08EE7AD239B00CC
:1041F000E35830001B6B98470723CBE70B1C914219
:1042000000D9131C01009AB22000338000F0A2F9FB
:10421000EB88002B00D082E7AEE7AB88002B00D004
:1042200073E7EB88002B00D06FE76D887F2D00D9F6
:104230006BE7A726B600A35D032B00D165E7474BCC
:10424000EDB2E5542900200000F0DDFB200000F075
:10425000AFF90223002D00D10123A3555FE7A97810
:104260003F4D2970012900D94FE7A7239B00E25C4D
:10427000022A09D0032A15D02000FFF72EFF2000C4
:104280002978FFF7F4FD4AE7002900D174E70121FE
:1042900003226160E2542000FFF7DBFD022800D01A
:1042A0006AE732E7002906D102222000E254616069
:1042B000FFF7DDFD60E76168012900D15CE7C9B265
:1042C0002000FFF7D4FD29786160E4E7EA88012A3D
:1042D00000D01AE7A7239B00E35C022B07D8002B32
:1042E00000D112E700232100A360083103E0211D63
:1042F000032B00D009E7200000F02CF90FE7A723DB
:104300009B00E35C013B022B00D9FEE6EB88022B0D
:1043100000D0FAE6A9239B00E2580123002A00D02E
:10432000023321000222E3600C31E4E76B88012BA9
:1043300000D0F4E6A9229200A3501DE7A7239B001A
:10434000E35C013B022B00D9DFE66B88012B00D038
:10435000E5E6A92300229B00E2500DE79E02000043
:104360000C04002060230A7870B5134004000D008F
:10437000520601D5402B19D1A7239B00E35C013BDA
:10438000022B13D82B79012B10D8AD239B00E358B7
:1043900029009B6820009847EB88002B04D1002857
:1043A00002D1200000F004F9002070BD2000FFF7CA
:1043B00094FEF9E70A780B0060210A4070B504000A
:1043C000100049182038084205D0002A0CD02000DF
:1043D000FFF783FE06E0AD229200A25819002000EC
:1043E00092689047002070BD9A885878D1B2012811
:1043F00038D0032820D00028E9D1A7239B00E35C14
:10440000022B49D0032BE2D10F2314250B406B4321
:10441000E318120651D59B69002BD8D07F230B409F
:1044200001335D436519802952D0200000F0D8FA8D
:10443000002852D001234CE0A7229200A25C022A5D
:1044400020D0032AC3D15A88002A07D14A0605D0B2
:10445000DB88002B02D1200000F0B0FA200000F031
:10446000A7F8BFE7A7229200A25C022A0AD0032A7B
:10447000ADD15B88002BB5D14B06EFD0200000F00A
:10448000A6FAEBE74B06A2D0200000F097FA8021B5
:10449000200000F093FAA5E7490600D097E7210035
:1044A0005531FF31120601D54139FF39002302226F
:1044B0000B60200000F04EF894E7FC33DB6D002B1E
:1044C00000D184E74D435535FF3565190029ACD13E
:1044D00000232B6002222900EBE72860FAE70B7823
:1044E00003704B784370CB788A781B021343438068
:1044F0004B790A791B0213438380CB798A791B029B
:104500001343C380704710B50400802100F056FAB1
:104510000021200000F052FA10BD70B504000D001B
:10452000160000280DD0FBF7F9FDC3B201335B0084
:1045300033802B70032300206B70013B217800290E
:1045400000D170BD5A1CE954D2B202330134DBB23F
:10455000A854F3E71300A52210B50224920084505A
:104560000A00C3610021036200F056FA002010BD6A
:1045700010B513000A00002100F04EFA002010BD13
:104580001300A52210B50324920084500200FC32CF
:10459000136653660A00002100F047FA002010BDA0
:1045A00010B513000A00002100F03FFA002010BDF2
:1045B000A52304229B0010B5C25000231A00190045
:1045C00000F02AFA002010BDA52305229B0010B59B
:1045D000C25000231A00190000F027FA002010BD75
:1045E00010B5114C002220001049FFF70AFC0028EA
:1045F00001D0FCF731FA20000D49FFF71CFC002820
:1046000001D0FCF729FA20000A49FFF7ACFB00288B
:1046100001D0FCF721FA2000FFF716FC002801D09A
:10462000FCF71AFA10BDC046100400209C010020BF
:10463000140100205801002000207047002070471E
:1046400070B505000968FCF789FB054C29002000BE
:10465000FFF79DFB2000FFF7BDFB002070BDC046AB
:104660001004002010B5064C002220000549FFF779
:1046700083FB20000449FFF78AFB002010BDC046E1
:1046800010040020D4060020140700200A00AE21E8
:1046900070B50D4C8900615803000220002912D02A
:1046A000A7208000255C0220032D0CD185208000EE
:1046B00009580120002906D119002000FFF75CFBF2
:1046C0002000FFF76BFB70BD10040020A722064BF3
:1046D00092009A5C0020032A05D1AE2292009858DD
:1046E000431E9841C0B2704710040020AE22054B13
:1046F00092009B58181E04D0A43A9858431E984123
:10470000C0B2704710040020122301480B8070478C
:1047100088010020042301480B8070478401002099
:1047200070B5002652008A18050FECB2230037330B
:10473000092D00D8073B0B704E70023100018A42F0
:10474000F2D170BD1A2310B50B800A4B18680A4BC2
:104750001B68C01800280AD0084B08221C680849AA
:10476000FFF7DEFF042220000649FFF7D9FF0648C5
:1047700010BDC046ACF7FF1FB4F7FF1FB0F7FF1F17
:104780006A0100207A0100206801002010B5044C65
:104790000A0021000348FFF7C0FE200010BDC046FC
:1047A000140B0020AF55000810B5044C0A0021007E
:1047B0000348FFF7B2FE200010BDC046140B0020D6
:1047C000C255000810B5044C0A0021000348FFF749
:1047D000A4FE200010BDC046140B0020D8550008D0
:1047E00010B5044C0A0021000348FFF796FE200094
:1047F00010BDC046140B0020E3550008002803D06C
:104800000238431E984101307047000007B50B4B3A
:1048100002689A4211D18021094B0904DA691F20EC
:104820000A43DA610022DB690B4001931100019B0E
:10483000FCF772FE1F20FCF799FE07BD005C0040EC
:1048400000100240A62310B59B00C1184033C05889
:10485000FFF716FB10BD28234B43C318FC339A6E99
:10486000B62310B59B00C058FFF73CFB10BD2823B2
:104870004B43C3185A6AB62310B59B00C058FFF7C4
:1048800074FB10BDB62310B59B00C058FFF716FC93
:1048900010BD70B543790400022B01D0FCF7DCF8A1
:1048A000B625AD0001216059FFF7EDFB6059FFF718
:1048B000C0FB70BDB62310B504009B00C058FFF7C5
:1048C000E5FB637A002B04D00623024A11690B43EF
:1048D000136110BD00ED00E010B5437A0400002B19
:1048E00006D00621054A13698B431361FBF7BEFF0F
:1048F000B6239B00E058FFF7D5FB10BD00ED00E0AC
:10490000B62370B504001C489B00C4501B4BB02557
:10491000036082239B0083800223C3710023AD00C8
:10492000605143724381FDF747FA002801D0FCF73C
:1049300093F80022605911001823FEF77AF86059A5
:10494000582300228021FEF774F86059C02300220A
:104950008121FEF76EF888236059002201215B0057
:10496000FEF767F880236059002282215B00FEF782
:1049700060F8002070BDC046340F0020005C00408D
:10498000B02310B59B00C058FDF762FAFFF736FF61
:1049900010BD10B514001A002300B024A400005963
:1049A000FDF75EFFFFF72AFF10BDB02310B59B0097
:1049B000C058FDF781FFFFF721FF10BDB02310B5F0
:1049C0009B00C058FDF7D9FFFFF718FF10BDB023BB
:1049D00010B59B00C058FDF7FEFFFFF70FFF10BD9D
:1049E000B0239B00C35848B22822002805DA7F2054
:1049F00001404A439B18987C70474A439B185333A5
:104A0000FF331878F8E7B02310B59B00C058FDF7C6
:104A100032FAFFF7F3FE10BD10B5B024A400005920
:104A2000FDF793FFFFF7EAFE10BD10B5B024A40018
:104A30000059FDF767FFFFF7E1FE10BDB02310B589
:104A40009B00C058FDF779FF10BD0000004870477B
:104A5000140D0020704700000CB430B5174B0C004B
:104A60001D689DB0002908DA8B2301202B6040428D
:104A70001DB030BC08BC02B01847822302A99B00BD
:104A80008B81002302904B6608619C4200D0631E1C
:104A90008B604B6101235B42CB81280021AB209AC4
:104AA000019300F0E7F9431C01DA8B232B60002C03
:104AB000DED00022029B1A70DAE7C046B80100205F
:104AC00003008218934200D1704719700133F9E74F
:104AD000C9B20378002B04D08B4200D1704701305B
:104AE000F7E74B42594149420840F7E730B5050026
:104AF000101E0BD00024013A2B5D085D834204D1C7
:104B0000A24202D00134002BF6D1181A30BD0300A6
:104B100030B51D00002A06D00C78013A01332C7004
:104B20000131002CF5D100219A18934200D130BDFB
:104B300019700133F9E70000014B18687047C0464F
:104B4000B801002070B500260C4C0D4D641BA4105C
:104B5000A64209D1002600F06BFC0A4C0A4D641BEA
:104B6000A410A64205D170BDB300EB58984701369A
:104B7000EEE7B300EB5898470136F2E79459000886
:104B800094590008985900089459000870477047D4
:104B900003000A7801311A700133002AF9D17047F5
:104BA000002310B59A4200D110BDCC5CC45401332F
:104BB000F8E7000070B505000C1E10D0043C236817
:104BC000002B00DAE418280000F0E0F81D4A136812
:104BD000002B05D163601460280000F0DFF870BD81
:104BE000A34208D9206821188B42F3D119685B6869
:104BF00009182160EEE71A005B68002B01D0A34280
:104C0000F9D911685018A0420BD120680918501822
:104C100011608342E0D118685B68411811605360ED
:104C2000DAE7A04202D90C232B60D5E720682118CF
:104C30008B4203D119685B68091821606360546076
:104C4000CAE7C0465413002070B50F4E0D003168FE
:104C50000400002902D100F095FB306029002000FB
:104C600000F090FB431C03D101256D42280070BD6C
:104C70000323C51C9D43A842F8D0291A200000F048
:104C800081FB0130F2D1EFE750130020F7B503228A
:104C9000CB1C9343083305001F000C2B34D20C2788
:104CA000B94233D8280000F071F8374E33681C0041
:104CB000002C2FD139002800FFF7C6FF0400431C49
:104CC0005FD134680094009B002B4AD1002C52D055
:104CD00023682800E3180099019300F053FB019B1F
:104CE000834248D123682800FF1A3900FFF7ACFF40
:104CF000013040D02368DB19236033685A68002AEA
:104D000033D1009B336019E0002BC9DA0C232B60F0
:104D10000020FEBD2168C91B20D40B290AD9E21945
:104D20002760A34204D1326063681160536005E0DC
:104D30005A60F9E76268A3420ED13260280000F0A1
:104D40002DF8200007220B30231D9043C21A9842F1
:104D5000DFD01B1AA350DCE75A60EFE7230064683A
:104D6000A6E7009C63680093ADE71A005B68A34266
:104D7000FBD10023DAE70C2328002B6000F00EF8AB
:104D8000C6E70760DAE7C0465413002010B50248B2
:104D9000FFF7FCFE10BDC0464C13002010B50248C2
:104DA000FFF7F5FE10BDC0464C130020F0B58E682D
:104DB00085B01F000C00330002900392BE4254D80D
:104DC0000C22885E9022D20010422CD00322096966
:104DD00023685B1A019363695343019ADD0FED1851
:104DE0007B1C6D109B182A00AB4201D91D001A00D4
:104DF000400527D511000298FFF748FF061E2AD06C
:104E0000019A2169FFF7CCFEA289194B1A40802331
:104E10001343A381019B2661F618266065613E005D
:104E2000ED1A3B00A5601F003A000399206800F0CE
:104E300097FA0020A3689B1BA3602368DB192360FB
:104E400005B0F0BD029800F0BAFA061EE2D1216961
:104E50000298FFF7AFFE0C230120029A4042136034
:104E6000A28934331343A381EAE73E00DCE7C0465E
:104E70007FFBFFFFF0B59FB002901D008B890F00F4
:104E800016001B0612D50B69002B0FD14021FFF72E
:104E9000FDFE38603861002806D10C23029A1360A9
:104EA000012040421FB0F0BD40237B61002306ACCF
:104EB0006361203363761033A376059535002B7834
:104EC000002B01D0252B48D1AB1B0393B5420BD04F
:104ED000320039000298FFF769FF013000D1AAE0E3
:104EE0006369039A9B1863612B78002B00D1A2E0C1
:104EF0000122532100235242626002AA52186E1C02
:104F00002360E360A3601370A365524B0522180071
:104F10003178039300F048FA751C226800281ED1EE
:104F2000D30604D5202302A9533009180B701307A8
:104F300004D553202B2302A909180B7033782A2B90
:104F400015D0350000210A20E3682A786E1C303A1B
:104F5000092A4ED9002910D116E00135AFE7039B8D
:104F60002E00C01A0123834013432360CDE7059B25
:104F7000191D1B680591002B01DBE36004E05B4217
:104F8000E3600223134323602B782E2B0CD16B7824
:104F90002A2B33D1059B02351A1D1B680592002B65
:104FA00001DA01235B4263602B4E03223000297833
:104FB00000F0FAF9002806D04023801B83402268C5
:104FC0000135134323602978062224486E1C21767C
:104FD00000F0EAF9002834D02148002821D1072226
:104FE000059B073393430833059363691B1863617B
:104FF00064E74343350001219B18A6E700230A20FC
:105000001900013563602A786E1C303A092A03D9E9
:10501000002BC9D06160C7E74143350001238918DF
:10502000F1E705AA009221003A000E4B029800E039
:1050300000BF431CD9D1BB895B0600D530E760694E
:1050400030E705AA009221003A00064B029800F0D2
:105050007BF8EEE7F1550008F7550008FB5500080E
:1050600000000000AD4D0008F7B5160001938A68F6
:105070000B690C000090934200DA130022003360A9
:1050800043321278002A01D00133336023689B0633
:1050900002D53368023333602268062315001D40B1
:1050A0001A4227D0230043331B785A1E93412268AB
:1050B000920630D4220001990098089D4332A847F7
:1050C000013025D00622236800251340042B05D18A
:1050D0003368E568ED1AEB43DB171D40A3682269CE
:1050E000934201DD9B1AED180026B54220D1002025
:1050F00010E00135E36832689B1AAB42D2DD220032
:10510000012301990098089F1932B8470130F0D166
:1051100001204042FEBD3020E118433108702100DB
:105120005A1C45310978A218433202331170C1E785
:105130002200012301990098089F1A32B8470130D4
:10514000E6D00136D1E70000F0B58BB006920A0038
:1051500043320793059003920A7E0C00109B782A35
:1051600009D8622A0BD8002A00D1BBE07A49049101
:10517000582A00D18FE0250042352A7022E0100025
:1051800063381528F7D8FAF7E5FF16001F00F6FF79
:10519000F6FFF6FFF6FF1F00F6FFF6FFF6FFF6FF3D
:1051A000A00036007F00F6FFF6FFB100F6FF3600E4
:1051B000F6FFF6FF830025001A684235111D1960BD
:1051C00013682B7001239FE018680968021D0D0603
:1051D0000BD506681A60002E03DA2D23039A764257
:1051E00013705D4B0A27049319E006681A6049069C
:1051F000F1D536B2EFE71A68096840CA080602D44A
:10520000490600D5B6B21A60237E534A0A27049293
:105210006F2B00D1023F2300002243331A706368D2
:10522000A360002B06DB04212268039D8A432260D1
:1052300033430CD0039D30003900FBF71BF8049B6F
:10524000013D5B5C2B70330006009F42F3D9082FB1
:1052500009D12368DB0706D5626823699A4202DC1C
:105260003023013D2B70039B5B1B2361079B2100B7
:1052700000930598069B09AAFFF7F6FE013048D176
:10528000012040420BB0F0BD202209680A43226091
:10529000782232490491210045310A701968226848
:1052A00040C9100602D4500600D5B6B21960D30723
:1052B00002D5202313432360002E01D01027AAE734
:1052C0002022236893432360F8E71A680D68101DB5
:1052D0004969186013682E0601D5196002E06D0651
:1052E000FBD519800023039D2361BFE71A68111DB8
:1052F0001960156800212800626800F055F8002840
:1053000001D0401B6060636823610023039A13701F
:10531000ACE72A00236906990598079DA847013044
:10532000AED023689B0715D4099BE0689842A9DAA0
:105330001800A7E72200012306990598079E193255
:10534000B04701309CD00135E368099A9B1AAB4203
:10535000F0DCE9E70025F7E70256000813560008DD
:1053600010B5884202D98B18984208D300239A427C
:1053700007D0CC5CC4540133F9E78B5C8354013A09
:10538000FBD210BD002370B5064D040008002B6051
:10539000FBF7F4FF431C03D12B68002B00D02360E4
:1053A00070BDC04648130020C9B28218904201D196
:1053B0000020704703788B42FBD00130F6E7F7B549
:1053C00006000C001500002905D11100FFF75EFC56
:1053D00004002000FEBD002A03D1FFF7EBFB2C00E8
:1053E000F7E700F01CF80700854202D84308AB42FB
:1053F000EFD329003000FFF749FC0190002801D1CC
:10540000019CE6E72A00BD4200D93A00210001983C
:10541000FFF7C6FB21003000FFF7CCFBF0E70B1FC6
:105420001B68181F002B01DA0B58C01870470000CA
:10543000F8B5C046F8BC08BC9E467047F8B5C046F3
:08544000F8BC08BC9E46704751
:105448004154454B004D4944415300535441544540
:105458003A25640D0A004154542028644229004228
:10546800256420284D487A290042595020284D4863
:105478007A2900257300422564202847487A2900A4
:10548800535044542053570052462564005053202B
:1054980025642E25645600424F4F54204D4F4445F5
:1054A8000053595354454D002A49444E3F00257333
:1054B8000D0A005345543A55504441544500456E31
:1054C800746572696E6720444655204D6F64652E79
:1054D8002E2E0D0A005345543A004745543F0031DB
:1054E8002E39202D20332E3500322E38202D203510
:1054F8002E3400342E35202D20392E3100372E3110
:10550800202D2031322E3300392E39202D203135EF
:105518002E330031322E35202D20313800343835E5
:10552800202D2038313000363730202D20313132CF
:105538003500393630202D203136373000313434BB
:10554800302D3235363000323134302D3338353065
:1055580000333330302D3538383000343832302D80
:10556800383530300032202D203930303000415469
:10557800454B31323331004154454B3138303100DD
:105588004154454B31303031004154454B31363070
:1055980031004154454B31323032004154454B5F64
:1055A80050535F5442440053544D6963726F656CA5
:1055B800656374726F6E6963730053544D333220A0
:1055C8005669727475616C20436F6D506F72740008
:1055D80043444320436F6E66696700434443204950
:1055E8006E7465726661636500232D302B20006838
:1055F8006C4C0065666745464700303132333435B8
:105608003637383941424344454600303132333425
:10561800353637383961626364656600000000001A
:105628000000005F00000007000700147F147F14CB
:10563800242A7F2A1223130864623649552250000F
:1056480005030000001C2241000041221C00140830
:105658003E081408083E08080050300000080808F2
:105668000808006060000020100804023E51494507
:105678003E00427F400042615149462141454B313D
:105688001814127F1027454545393C4A49493001CD
:10569800710905033649494936064949291E003624
:1056A8003600000056360000081422410014141475
:1056B8001414004122140802015109063E415D55A7
:1056C8001E7E1111117E7F494949363E41414122D2
:1056D8007F4141221C7F494949417F090909013E0F
:1056E8004149497A7F0808087F00417F41002040EE
:1056F800413F017F081422417F404040407F020C17
:10570800027F7F0408107F3E4141413E7F0909091D
:10571800063E4151215E7F091929464649494931CA
:1057280001017F01013F4040403F1F2040201F3FB3
:105738004038403F63140814630708700807615134
:10574800494543007F4141000204081020004141BF
:105758007F0004020102044040404040000102046E
:105768000020545454787F484444383844444420F2
:10577800384444487F3854545418087E0901020CB0
:105788005252523E7F0804047800447D4000204075
:10579800443D007F1028440000417F40007C0418ED
:1057A80004787C0804047838444444387C1414147D
:1057B80008081414187C7C0804040848545454201D
:1057C800043F4440203C4040207C1C2040201C3C9E
:1057D8004030403C44281028441CA0A0A07C4464CD
:1057E800544C44000836410000007F000000413658
:1057F800080010080810080000000000000102035B
:105808000405060708090A0B0C0D0E0F10111213D8
:105818001415161718191A1B1C1D1E1F0001020348
:105828000405060708090A0B0C0D0E0F10111213B8
:105838001415161718191A1B1C1D1E1F00011B0012
:105848001C001D001E001F00200021002200300047
:10585800330037003A0044004B005F0070009600A8
:105868009B00A000A400A800AC00B000B400E600B3
:10587800F50009011D0136015E01A9012602000596
:105888000203010400060405020103077655000817
:1058980005200000FC5800087F550008052000007E
:1058A800245900088855000803080000E458000837
:1058B80091550008030600004C5900089A55000845
:1058C80001020000DC580008A35500080000010090
:1058D8000000000000000048000100000008004827
:1058E800010000000008004802000000000800480D
:1058F800040000000000004802000000000000480A
:1059080004000000000000480800000000000048F3
:1059180010000000000000482000000000000048BF
:1059280010000000000000482000000000000048AF
:105938004000000000040048040000000004004883
:105948000800000000000048800000000004004833
:1059580000100000000400480020000000000000C3
:1059680000000000010203040607080901020304FD
:1059780005060708090A0B0C0D0E0F100203040593
:0C598800060708090A0B0C0D0E0F10108A
:04599400E90000081E
:04599800C100000842
:10599C00E7540008F1540008FB54000805550008B2
:1059AC00105500081B550008255500082F550008F8
:1059BC003A550008455500084F5500085955000840
:1059CC00635500086D5500080100000000127A00B4
:1059DC00010000000400000009074300020104C09C
:1059EC003209040000010202010005240010010527
:1059FC00240100010424020205240600010705828B
:105A0C000308001009040100020A00000007050148
:105A1C00024000000705810240000000090243001B
:105A2C00020100C032090400000102020100052439
:105A3C0000100105240100010424020205240600C3
:105A4C00010705820308001009040100020A000086
:105A5C00000705010240000007058102400000001C
:105A6C0009024300020100C03209040000010202D5
:105A7C000100052400100105240100010424020288
:105A8C000524060001070582030800100904010023
:105A9C00020A00000007050102000200070581024E
:105AAC0000020000CF3C0008893C0008CD3B0008F8
:105ABC0000000000E93A0008813B00084D3B00085B
